:020000040800F2
:10000000005000207D0F00085B100008551000080C
:100010005510000855100008551000080000000099
:100020000000000000000000000000005B1000085D
:100030005B100008000000005B1000087111000850
:1000400055100008551000085510000855100008FC
:1000500055100008551000085510000855100008EC
:1000600055100008551000085510000855100008DC
:1000700055100008551000085510000855100008CC
:1000800055100008551000085510000855100008BC
:10009000710300085510000855100008551000089D
:1000A000551000085510000855100008551000089C
:1000B000551000085510000855100008551000088C
:1000C000551000085510000855100008551000087C
:1000D000551000085510000855100008551000086C
:1000E000551000085510000855100008551000085C
:1000F000551000085510000855100008551000084C
:10010000551000085510000855100008551000083B
:10011000551000085510000855100008551000082B
:10012000551000085510000855100008551000081B
:10013000551000085510000855100008551000080B
:1001400055100008551000085510000855100008FB
:1001500080B500AF01F006F94FF4417001F048F9A5
:1001600040F2973001F044F900BF80BD80B582B005
:1001700002AFFFF7EDFF00F0E1FF00F039FD0F20C7
:1001800000F0C4FC0B4B01930023009340F2FF737B
:10019000094AC8210A2000F087FB064B00934FF65E
:1001A000FF73064A0A210A2000F062FB00F008F8FB
:1001B000FEE700BF243D00082C3D0008403D00083C
:1001C00080B584B004AF40F2172001F01FF94FF45E
:1001D000805300220121164800F0D8FF4FF48051CF
:1001E000134801F004F8502000F08EFF00F03CFFAF
:1001F0004FF4807302930F4B0193042300930E4B33
:100200000E4A0F490F4801F057F903460E4A136092
:100210000D4B1B680D49184601F044FD8021142048
:1002200001F032FE142001F021FE00BFBD4680BD6A
:100230000008014014000020B83D0008103E0008EE
:10024000203E0008483E000810000020510200082F
:1002500080B584B002AF78600B467B80134B00936F
:10026000402302220121786801F052F90023009313
:10027000402301228221786801F04AF90C4B0022C8
:100280001A700C4B18680C4B7F22412101F02EFA9A
:100290000A4B00934FF6FF73094A28210A2000F009
:1002A000E7FA00BF0837BD4680BD00BF3503000830
:1002B0001401002010000020C5020008243D0008A1
:1002C000503D000880B588B002AFF860B9607A6030
:1002D0003B60BB685B78332B23D1BB689B889BB2A8
:1002E000002B1ED1BB685B889BB2882B19D10F4BAA
:1002F00000934FF6FF730E4A64210A2000F0B8FA0B
:10030000EF23EF220021002000F03EF8AA233B75E6
:1003100007F1140201238221F86801F019F9012381
:1003200000E0022318461837BD4680BD243D000872
:10033000703D000880B594B000AF78600B46FB704C
:100340000A4B186807F10C024023012101F007F95C
:100350000346FB64FA6C07F10C031146184600F0E3
:1003600071FB00BF5037BD4680BD00BF10000020AC
:1003700080B500AF034B1B68184601F0C5F800BFFD
:1003800080BD00BF1000002090B484B000AF0446D0
:10039000084611461A462346FB800346BB800B469F
:1003A0007B8013463B802A237B73824B04221A8076
:1003B000814A7B7B136000BF00BF00BF00BF00BF4E
:1003C00000BF00BF00BF00BF00BF00BF00BF00BF35
:1003D00000BF00BF00BF00BF00BF00BF00BF00BF25
:1003E000764B04221A60FB881B0A9BB2DAB2724B6E
:1003F0001A6000BF00BF00BF00BF00BF00BF00BF4A
:1004000000BF00BF00BF00BF00BF00BF00BF00BFF4
:1004100000BF00BF00BF00BF00BFFB88DAB2664B61
:100420001A6000BF00BF00BF00BF00BF00BF00BF19
:1004300000BF00BF00BF00BF00BF00BF00BF00BFC4
:1004400000BF00BF00BF00BF00BF7B881B0A9BB27C
:10045000DAB2594B1A6000BF00BF00BF00BF00BF37
:1004600000BF00BF00BF00BF00BF00BF00BF00BF94
:1004700000BF00BF00BF00BF00BF00BF00BF7B8840
:10048000DAB24D4B1A6000BF00BF00BF00BF00BF13
:1004900000BF00BF00BF00BF00BF00BF00BF00BF64
:1004A00000BF00BF00BF00BF00BF00BF00BF2B23C5
:1004B000BB73404B04221A803F4ABB7B136000BFD2
:1004C00000BF00BF00BF00BF00BF00BF00BF00BF34
:1004D00000BF00BF00BF00BF00BF00BF00BF00BF24
:1004E00000BF00BF00BF00BF344B04221A60BB88AE
:1004F0001B0A9BB2DAB2304B1A6000BF00BF00BFCC
:1005000000BF00BF00BF00BF00BF00BF00BF00BFF3
:1005100000BF00BF00BF00BF00BF00BF00BF00BFE3
:1005200000BFBB88DAB2244B1A6000BF00BF00BF17
:1005300000BF00BF00BF00BF00BF00BF00BF00BFC3
:1005400000BF00BF00BF00BF00BF00BF00BF00BFB3
:1005500000BF3B881B0A9BB2DAB2174B1A6000BF80
:1005600000BF00BF00BF00BF00BF00BF00BF00BF93
:1005700000BF00BF00BF00BF00BF00BF00BF00BF83
:1005800000BF00BF00BF3B88DAB20B4B1A6000BF50
:1005900000BF00BF00BF00BF00BF00BF00BF00BF63
:1005A00000BF00BF00BF00BF00BF00BF00BF00BF53
:1005B00000BF05E0140801400C3001401008014064
:1005C00000BF00BF2C23FB730F4B04221A800F4A7D
:1005D000FB7B136000BF00BF00BF00BF00BF00BFB8
:1005E00000BF00BF00BF00BF00BF00BF00BF00BF13
:1005F00000BF00BF00BF00BF00BF00BF00BF00BF03
:100600001037BD4690BC7047140801400C300140C3
:1006100090B58BB000AF0446084611461A462346F3
:10062000FB800346BB800B467B8013463B80002348
:10063000FB810023BB81BB6B9B88FB81BB6BDB8891
:10064000BB81FB88FB84BB88BB848023FB720023B7
:1006500087F82330BB6B1B68FB610023FB7600230C
:100660007B6143E000233B6131E097F82330002BAE
:1006700008D1FB695A1CFA611B78FB76BB6B1B7AAD
:1006800087F8233097F82330013B87F82330FA7E30
:10069000FB7A1340DBB2002B0AD097F83C30002BDA
:1006A0000CD03A88B98CFB8C184600F055FA05E05E
:1006B0007A88B98CFB8C184600F04EFAFB7E5B0002
:1006C000FB76BB8C0133BB843B6901333B61BB8947
:1006D0003A699A42C9DBBB88BB84FB8C0133FB843B
:1006E000002387F823307B6901337B61FB897A69BA
:1006F0009A42B7DB00BF00BF2C37BD4690BD00005B
:1007000090B58BB002AFBA601A460346FB810B4628
:10071000BB811346FB80FB89FB83BB89BB83002322
:10072000BB7500237B750023BB6100237B82002304
:100730003B828DE0BB681B780A2B0DD1FB89FB83C4
:100740007B6B5B685B68DA887B7D9BB213449AB2F3
:10075000BB8B1344BB8378E0BB681B78092B0DD19E
:100760007B6B5B685B68DB881A467B7D13449BB2BE
:100770009B009AB2FB8B1344FB8366E00023FB755E
:1007800014E07B6B5A68FB7DDB0013441B68BA687E
:100790001278934207D17B6B5A68FB7DDB001344D0
:1007A0005B68BB6107E0FB7D0133FB75FA7D7B6B0A
:1007B0001B689A42E5DBBB69002B4FD0BB699B8865
:1007C0007B82BB69DB883B82274B1B881846BA8B30
:1007D000398A7B7D0B441344984241DD234B1B88AF
:1007E0001846FA8B798ABB7D0B441344984209DC86
:1007F000FB89FB837B7D9AB23B8A13449AB2BB8B05
:100800001344BB8397F83830002B0BD03C8EFA880A
:10081000B98BF88B01230193BB6900932346FFF743
:10082000F7FE0AE03C8EFA88B98BF88B002301931F
:10083000BB6900932346FFF7EBFEBB7D9AB27B8A30
:1008400013449AB2FB8B1344FB83BB680133BB6038
:10085000BB681B78002B7FF46DAF02E000BF00E0A7
:1008600000BF2437BD4690BD0200002000000020DC
:1008700080B588B004AFBA601A460346FB810B46C8
:10088000BB811346FB80FA88B989F889002302935B
:10089000BB690193002300931346BA68FFF730FF4A
:1008A00000BF1037BD4680BD80B588B004AFBA60C8
:1008B0001A460346FB810B46BB811346FB80FA8830
:1008C000B989F88901230293FB6901933B8B00935B
:1008D0001346BA68FFF714FF00BF1037BD4680BD4E
:1008E00080B4C9B000AF024607F59073A3F59073CA
:1008F000196007F59073A3F58D731A804B4B042292
:100900001A6007F59073A3F58D731B881B0A9BB2C1
:1009100087F8153107F59073A3F58D731B8887F859
:1009200014310023A7F81E3117E0B7F81E3107F580
:100930009072A2F58A7297F81511D154B7F81E314A
:10094000013307F59072A2F58A7297F81411D15409
:10095000B7F81E310233A7F81E31B7F81E31FF2B4E
:10096000E3D907F59073A3F590731B685B00C7F894
:1009700018314FF48073A7F816314BE0B7F8162101
:10098000D7F81831934228BF1346A7F8163107F15C
:100990000C03C7F81031B7F81631A7F80E31244A06
:1009A000D7F810311360234AB7F80E311360224B89
:1009B0001B68214A43F001031360204B1B681F4A48
:1009C00043F00203136000BF1A4B1B68002BFBD1DE
:1009D00000BF1B4B1B6803F00203002BF9D000BFC4
:1009E000174B1B6803F08003002BF9D1134B1B68D6
:1009F000124A23F0020313600F4B1B680E4A23F0C8
:100A00000103136000BFB7F81631D7F81821D31AC5
:100A1000C7F81831D7F81831002BAFD100BF00BF8D
:100A200007F59277BD4680BC704700BF10080140B3
:100A30003C000240340002403000024004300140DB
:100A40000830014080B487B000AF78603960294B2E
:100A500004221A603B687B614FF480737B823FE025
:100A60007A8A7B69934228BF13467B827B68FB604E
:100A70007B8A7B81204AFB681360204A7B89136054
:100A80001F4B1B681E4A43F0010313601D4B1B687C
:100A90001C4A43F00203136000BF184B1B68002B75
:100AA000FBD100BF184B1B6803F00203002BF9D0E9
:100AB00000BF154B1B6803F08003002BF9D1114BCD
:100AC0001B68104A23F0020313600D4B1B680C4A8D
:100AD00023F00103136000BF7B8A7A69D31A7B611C
:100AE0007B69002BBCD100BF00BF1C37BD4680BC5A
:100AF000704700BF100801403C0002403400024033
:100B000030000240043001400830014080B582B01E
:100B100000AF0346FB800E4B1B88013B9AB20D4B86
:100B20001B88013B9BB200210020FFF72DFC084BE6
:100B30001B881A46074B1B8803FB02F2FB881146F1
:100B40001846FFF7CDFE00BF0837BD4680BD00BF89
:100B5000000000200200002080B582B000AF0346F4
:100B6000FB800B46BB8013467B80BB88FA88B98824
:100B7000F888FFF709FC1C4B04221A607B881B0ACB
:100B80009BB2DAB2194B1A6000BF00BF00BF00BFB2
:100B900000BF00BF00BF00BF00BF00BF00BF00BF5D
:100BA00000BF00BF00BF00BF00BF00BF00BF00BF4D
:100BB0007B88DAB20D4B1A6000BF00BF00BF00BFD8
:100BC00000BF00BF00BF00BF00BF00BF00BF00BF2D
:100BD00000BF00BF00BF00BF00BF00BF00BF00BF1D
:100BE00000BF0837BD4680BD100801400C300140F1
:100BF00080B586B002AF40F2023000F0F9FB4FF44E
:100C0000407000F0F5FB4FF4437000F0F1FB4FF43F
:100C1000207000F0EDFBA02302220321934800F096
:100C2000B5FA1C2300220321904800F0AFFA1C21E2
:100C30008E4800F0DAFA8E4B1B688D4A43F08073C1
:100C400013608C4B8C4A1A608C4B00221A608C4BC0
:100C500000221A608B4B4FF400521A60894B1B68BC
:100C6000884A43F010031360864B1B68854A23F0C3
:100C700020031360834B1B68824A23F040031360F8
:100C8000804B1B687F4A43F0800313607D4B7D4A95
:100C90001B6813607C4800F0CBFB7C4B00221A6081
:100CA00000230193002300930023022200217648B1
:100CB00000F0EEFB744800F0DDFB734800F0D5FB5C
:100CC000714800F0E0FB704800F0CAFB704B102246
:100CD0001A8000F037F96F4B10221A6000F032F9D9
:100CE0000123FB716A4B04221A80634AFB7913606B
:100CF00000BF00BF00BF00BF00BF00BF00BF00BFFC
:100D000000BF00BF00BF00BF00BF00BF00BF00BFEB
:100D100000BF00BF00BF00BF00BF00F013F91123E8
:100D20003B725B4B04221A80534A3B7A136000BF2C
:100D300000BF00BF00BF00BF00BF00BF00BF00BFBB
:100D400000BF00BF00BF00BF00BF00BF00BF00BFAB
:100D500000BF00BF00BF00BF00F0F4F83A237B7271
:100D60004B4B04221A80444A7B7A136000BF00BFB9
:100D700000BF00BF00BF00BF00BF00BF00BF00BF7B
:100D800000BF00BF00BF00BF00BF00BF00BF00BF6B
:100D900000BF00BF00BF5523BB723E4B04221A6048
:100DA000354ABB7A136000BF00BF00BF00BF00BF61
:100DB00000BF00BF00BF00BF00BF00BF00BF00BF3B
:100DC00000BF00BF00BF00BF00BF00BF00BF00BF2B
:100DD00000F0B8F83623FB722D4B04221A80264A05
:100DE000FB7A136000BF00BF00BF00BF00BF00BFA1
:100DF00000BF00BF00BF00BF00BF00BF00BF00BFFB
:100E000000BF00BF00BF00BF00BF00BF00BF002386
:100E10003B73204B04221A60174A3B7B136000BFD0
:100E200000BF00BF00BF00BF00BF00BF00BF00BFCA
:100E300000BF00BF00BF00BF00BF00BF00BF00BFBA
:100E400000BF00BF00BF00BF21237B73104B0422F3
:100E50001A80094A7B7B136000BF00BF00BF00BF40
:100E600000BF00BF00BF00BF16E000BF0008014088
:100E700004000140380002400C3001403C000240B8
:100E80003400024030000240003001401C3001407C
:100E9000140801401008014000BF00BF00BF00BFA0
:100EA00000BF00BF00BF00BF00BF00BF00BF00BF4A
:100EB00000BF00F047F81323BB73204B04221A80B5
:100EC0001F4ABB7B136000BF00BF00BF00BF00BF55
:100ED00000BF00BF00BF00BF00BF00BF00BF00BF1A
:100EE00000BF00BF00BF00BF00BF00BF00BF00BF0A
:100EF00000F028F82923FB73104B04221A80104AB3
:100F0000FB7B136000BF00BF00BF00BF00BF00BF7E
:100F100000BF00BF00BF00BF00BF00BF00BF00BFD9
:100F200000BF00BF00BF00BF00BF00BF00BF00F098
:100F300009F800BF1037BD4680BD00BF140801404E
:100F40000C30014080B483B000AF0023FB8003E08D
:100F500000BFFB880133FB80FB8841F2873293425C
:100F6000F6D900BF00BF0C37BD4680BC704780B4C7
:100F700000AF00BFBD4680BC7047000080B584B0A4
:100F800000AF294BFB60294BBB6009E0FB681A6886
:100F9000BB681A60FB680433FB60BB680433BB604A
:100FA000BB68234A9342F1D304E0BB681A1DBA60C0
:100FB00000221A60BB681F4A9342F6D31E4B1B687F
:100FC0001D4A43F400731360FFF7D1FF1B4B7B6096
:100FD00005E07B681B6898477B6804337B607B680F
:100FE000174A9342F5D3174B7B6005E07B681B687B
:100FF00098477B6804337B607B68134A9342F5D340
:10100000FFF7B4F8114B7B6005E07B681B689847DD
:101010007B6804337B607B680D4A9342F5D300BF45
:1010200000BF1037BD4680BD7C3E00080000002098
:10103000100000203002002014ED00E07C3E00088B
:101040007C3E00087C3E00087C3E00087C3E000898
:101050007C3E000880B400AFFEE780B400AF00BF64
:10106000BD4680BC7047000080B584B000AF0F4B18
:101070001B68FB600E4B1B68BB600E4B1B687B60E4
:10108000FA687B681344FB6008220B49F86800F09B
:1010900017F80A4B04221946B86800F011F8064BFD
:1010A00000221A7300BF1037BD4680BDE8F7FF1F4E
:1010B000ECF7FF1FF0F7FF1F1801002020010020B0
:1010C00080B487B000AFF860B9607A6000237B61BC
:1010D0000DE0FB681A0F7B69B9680B4409498A5C0B
:1010E0001A70FB681B01FB607B6901337B617A69C5
:1010F0007B689A42EDDB00BF00BF1C37BD4680BC59
:10110000704700BF343E000880B485B000AF7860FF
:10111000094B1A687B681344FB6000BF064B1B68D1
:101120001A46FB689B1A002BF8DC00BF00BF14377F
:10113000BD4680BC704700BF2801002080B500AFCD
:10114000002000F077FE084B1B68084AA2FB03232F
:101150005B0A013B184600F065FE00F077FE00F0E8
:101160007DFE00BF80BD00BF04000020D34D621093
:1011700080B400AF044B1B680133034A136000BF07
:10118000BD4680BC704700BF280100202DE9F0411A
:101190004FF00F0C00250768466843FA05F4E40792
:1011A0001CD5072D94BFBE46B646ACB24FEA8404A8
:1011B0008ABF203CA4B2A4B20CFA04F82EEA0808B4
:1011C00004F1020E02FA0EFE01FA04F44EEA0404DF
:1011D00044EA0804072D94BF274626460135102D02
:1011E000DBD107604660BDE8F0810161704709040A
:1011F00001617047024A136843F0807313607047BF
:1012000000100240062822D8DFE800F004090E137F
:10121000181D1F000F4B1868C0F3406070470D4B3E
:101220001868C0F3C06070470A4B1868C0F340707C
:101230007047084B1868C0F340407047054B18686A
:10124000C0F340007047044BF9E7044BF7E7002078
:10125000704700BF001002402010024024100240DE
:10126000024608B51046FFF7CDFF0028FAD008BDAA
:1012700006280CD8DFE800F004060C11161B1D0030
:10128000FFF7B8BF0C4A136843F0806313607047E0
:10129000094A136843F08053F8E7074A136843F498
:1012A0008033F3E7044A136843F00103EEE7034A8F
:1012B000F9E7034AF7E700BF0010024020100240A0
:1012C00024100240034A136823F00303034313600E
:1012D000704700BF04100240034A136823F47013E0
:1012E00043EA80431360704704100240034A1368C6
:1012F00023F4803343EA0043136070470410024034
:10130000034A136823F4003343EA404313607047F1
:1013100004100240034A136823F4404343EA803335
:101320001360704704100240034A136823F46053AB
:1013300043EAC0231360704704100240034A136855
:1013400023F4E06343EA0023136070470410024073
:10135000034A136823F0F00343EA00131360704755
:101360000410024008B50420FFF782FF0420FFF7B5
:1013700077FF0020FFF7A6FF0320FFF779FF032088
:10138000FFF76EFF0120FFF79DFF0020FFF7E0FF52
:101390000320FFF7BFFF0420FFF7D0FF0020FFF777
:1013A000C3FF022000F080FD0720FFF795FF01201A
:1013B000FFF79CFF0020FFF7A3FFFFF71BFF0020B4
:1013C000FFF74EFF0220FFF77DFF044B044A05495B
:1013D0001360054A1160054A136008BD00A24A0463
:1013E0000400002000512502080000200C0000200D
:1013F0000122430903F1804303F50433196800F027
:101400001F0002FA00F008431860704701224309E8
:1014100003F1804303F50433196800F01F0002FA5A
:1014200000F0014319601A6822EA00001860704752
:101430000A4B98420ED003F57443984206D0A3F5A8
:101440007843984209D140F20E2001E04FF4C67073
:10145000FFF7DCBF40F20F20FAE77047003C004086
:10146000036843F0400303607047036823F480631C
:1014700003607047036843F400730360436823F01C
:10148000040343607047036843F48073036070474C
:1014900030B50468049D04F441542C43039D2C434F
:1014A0001C43144343680C4344F0040443F0040316
:1014B00043600460002030BD2DE9F0411E46036802
:1014C0000546884617469847069BC0E90087C360D3
:1014D000079BC0F8DC500361BDF820308660838232
:1014E000064B0367064BC366064B83660023C0E9C1
:1014F0003233C0E93433BDE8F08100BF191700086A
:1015000079170008FB170008D0F8DC305B6A184731
:1015100010B4D0F8DC40A468A44610BC604737B5CE
:10152000002504460368C582DB792A4629460095D2
:10153000FFF7EEFFD4F8DC3029465B682046984779
:10154000E3691BB103B0BDE83040184703B030BDBC
:1015500010B4D0F8DC40E469A44610BC604710B475
:10156000D0F8DC40246AA44610BC6047D0F8DC30D8
:101570001B691847D0F8DC309B691847D0F8DC307D
:101580005B69184710B503680446D979838F826B6D
:1015900099420FD20B460021FFF7DAFF022384F8AD
:1015A0002C302368A26BD979A38F0A445B1AA263FB
:1015B000A38710BD0021FFF7CBFF94F84430002B28
:1015C00014BF0223032384F82C30002384F8443012
:1015D000A387A363EDE72DE9F74F04460E460546C2
:1015E00000F1200A00F1380800F13C0B00F140093D
:1015F000AF6C47B95B4642463146204603B0BDE872
:10160000F04F00F0BFBB317895F84D2095F84C3085
:1016100011408B4203D008355545E9D1EAE75B46D6
:10162000424631462046CDF80090B8470128F2D80E
:1016300003B0BDE8F08F10B5012200210446FFF78A
:1016400095FF002384F82C3010BD70B50368828F9D
:10165000C48EDB79A41A9C42A8BF1C46816BA6B23B
:101660000A44334600210546FFF779FF864205D03C
:101670002846FFF7E0FF4FF0FF3070BDAB8FA0B200
:101680001E44AE87F9E738B50369044683638B7956
:10169000CA790D4643EA02238387FFF79CFF00B314
:1016A000EB88ABB1A28F21689342C9790ED932B1D0
:1016B000B2FBF1F301FB1322B2FA82F25209204687
:1016C00084F84420BDE83840FFF75CBF0022F6E70D
:1016D0001A4619462046FFF73BFF042384F82C30B6
:1016E00038BD2046BDE83840FFF7A5BF70B50024DF
:1016F00000F1480656F834502DB10134042CF9D1CC
:101700004FF0FF3070BD00EBC40484F84C10284645
:1017100084F84D20A364F5E770B500250446012246
:101720002946056400F13006FFF728FFE28E2AB94A
:1017300031462046BDE87040FFF7A5BF94F9303030
:10174000002BF5DBA38A934204D22046BDE870400B
:10175000FFF771BF2369A587A36323682946DB7957
:101760002046934234BF052306232A4684F82C30B2
:10177000BDE87040FFF702BF10B590F82C3004466A
:10178000062B12D0072B27D0052B21D1FFF75DFFA9
:10179000002809DBA28FE38E9B1A2268D27993423C
:1017A00002DC062384F82C3010BDFFF74EFF002822
:1017B000FADB204604F13001FFF70DFF38B10023BA
:1017C00020461A461946FFF7C3FE0423EAE72046DF
:1017D000BDE81040FFF72FBF00231A461946FFF758
:1017E000BEFE002384F82C30236C1BB1204604F18C
:1017F0003001984700232364D6E710B590F82C30C9
:101800000446032B07D0042B0ED0022B23D1BDE8B6
:101810001040FFF7B7BE0723002280F82C30114696
:10182000BDE81040FFF7AABE036C13B100F1300110
:10183000984794F8303053B994F83130052B06D1DD
:10184000618ED4F8DC3020465B68C9B2984700232B
:1018500084F82C3010BDBDE81040FFF7ECBE10B589
:101860000B7873B94C887F2C0CD8D0F8DC30847599
:1018700093F830201AB149885B68C9B298470123B0
:1018800000E00023184610BDF8B50D46498804460F
:1018900079B103680D26587C0023984201D80020B6
:1018A000F8BD626806FB032252798A4203D00133F5
:1018B000F3E74FF0FF330133DBB2E3754BB9D4F8F4
:1018C000DC302046DB689847D4F8C8309BB901204B
:1018D000E6E70D22534362680D3B13440022104695
:1018E00019799142EBD9D3F809101601715801B159
:1018F00008700132F4E7002304F1C806A3642365ED
:10190000A365236604F1D80756F8043B13B12046BB
:1019100069889847B742F7D1D9E719881268012931
:1019200084BF01211980C37D2BB141680D2000FBCC
:10193000031313F8083C01201370704730B50D24D1
:10194000C57D40686C430D3C04448D8820798542F8
:101950000CD2012018808B88D4F809001B011B5879
:1019600003B11B7801201268137030BD0020FCE722
:1019700019880120022984BF0221198000231168DF
:101980000B7012685370704710B514461A88022AFB
:1019900084BF02221A808988C9B2FFF7EBFD0038A4
:1019A00018BF0120002223681870236801205A7094
:1019B00010BD08B589880122C9B2FFF7D7FD012003
:1019C00008BD08B589880022C9B2FFF7CFFD012004
:1019D00008BD0D2270B51C46C37D5A4343680D3ABD
:1019E00013441D798A88954219D9D3F809501601F4
:1019F00005EB02124B8812799A4210D9AA5952B1BA
:101A00001370D0F8D83013B14A88898898470023DA
:101A10000120238070BD002BF3D01046FAE7002090
:101A2000F8E72DE9F04F1F464B880646180A0228B2
:101A3000144689B010D0032800F0ED80012840F052
:101A40002381336813601B783A88934228BF13467A
:101A50003B8009B0BDE8F08F4FF00D08DBB208FB0A
:101A600003F83269D6F80490226019F808503C88CF
:101A700009EB0803A54228BF2546029219462A46CB
:101A80000298039300F09AFC029B641B5E190023EA
:101A900019F80880A4B20193039B1A79BDF80430A9
:101AA0009A4205D8029BA3F802803D800120D0E72E
:101AB000019B019A1B010593039BD3F8093003EBAB
:101AC0000213D3F808A0BAF1000F14D09AF80090CE
:101AD0003046A14528BFA14651464A4600F06EFC5B
:101AE0009AF80030A4EB09044D4498444E44A4B243
:101AF000ADB21FFA88F800230493039B059AD3F82C
:101B0000093013441979BDF81020914202D8019B85
:101B10000133C0E71521049AD3F80CA001FB02F9A8
:101B20001AF809B00AEB0903A34528BFA3461946D2
:101B300030465A46009300F041FC1AF80930A4EBF5
:101B40000B049844009B5D44D3F80D105E44A4B28E
:101B5000ADB21FFA88F8B1B1D3F811A03046A24552
:101B6000A8BFA2461FFA8AF94A4600F027FC009B4C
:101B7000A4EB0904D3F811304D4498444E44A4B268
:101B8000ADB21FFA88F84FF00009009B1A791FFACE
:101B900089F39A4202D8049B0133ADE7009BC9EB5D
:101BA000091BD3F80930304613F80B2003EB0B0A5E
:101BB000A24228BF224651460793069200F0FEFB40
:101BC000079B069A13F80B30DAF80710A41A15448D
:101BD00098441644A4B2ADB21FFA88F8C1B1DAF83D
:101BE0000B203046A242A8BF22461FFA82FB5A466B
:101BF000CDF818B000F0E2FBDAF80B30069AA4EB4F
:101C00000B045D4498441644A4B2ADB21FFA88F8A0
:101C100009F10109B9E713F0FF0335690DD1092373
:101C2000AB700423EB702B703B88042B28BF04237C
:101C30003B8003236B70256038E7B068013B0028C8
:101C40003FF407AFF2689A421EDD40F209428988EC
:101C5000914219D150F82360304600F0BDFB0130AD
:101C60004000C0B228703B88984228BF1846002325
:101C700038803A885208013A9A42DADDF15C05EB85
:101C8000430251800133F4E70020E2E61988012085
:101C9000022984BF02211980002311680B70126889
:101CA000537070470246002310B500F1C80454F881
:101CB000040B38B1884209D00133042BF7D14FF01F
:101CC000FF3010BD323342F82310FAE70020F8E766
:101CD00010B44C78092C12D8DFE804F00D11111162
:101CE000110F0B110905074CA44610BC6047064CA8
:101CF000FAE7064CF8E7064CF6E7064CF4E7002056
:101D000010BC7047891800081B190008231A000826
:101D1000711900085F18000810B44C780A2C06D01E
:101D20000B2C06D03CB9054CA44610BC6047044CB3
:101D3000FAE7044CF8E7002010BC70478D1C00083F
:101D40003D190008D319000810B44C78012C04D0B8
:101D5000032C07D01CB9084C08E04C884CB100207B
:101D600010BC70474C88002CF9D1044CA44610BC20
:101D70006047034CFAE700BF89190008B31900084F
:101D8000C319000810B40C7814F0600F0FD104F0E0
:101D90001F04012C05D0022C06D044B910BCFFF75B
:101DA00097BF10BCFFF7B8BF10BCFFF7CDBF002036
:101DB00010BC704708B540F29730FFF719FB0023BD
:101DC000054A064913600B6041F80C3C4FF41C4374
:101DD0000348136008BD00BF405C0040505C0040F9
:101DE0002C0100200132521001EB4202914200D13D
:101DF000704731F8023B40F8043BF7E7034670B503
:101E000002F00104520801EB8205A94204D114B189
:101E10000B7800F8123070BD31F8046B23F8026BB8
:101E2000F3E70000024B20F07F401860704700BFCE
:101E300014E000E0044A00F00400136823F00403F7
:101E400003431360704700BF10E000E0024A1368CC
:101E500043F002031360704710E000E0024A136889
:101E600043F001031360704710E000E001224309D2
:101E70009B0003F1604300F01F0003F5614302FA89
:101E800000F0186070470000432893BF00F16040E5
:101E9000044B00F00F0000F564408CBFC15401708A
:101EA000704700BF14ED00E0034A136823F00703F6
:101EB00003431360704700BF00200240024B41F013
:101EC00080011960704700BF4C5C00403E2A13D966
:101ED000013AC2F3441302F4787202F1200043F095
:101EE0002003084A9B0212689BB292B202EBC10126
:101EF000054A4900535070470132530822F001024D
:101F000090B2EEE7505C00400C6000402DE9F341D8
:101F100006464FF0C060434C01F07F07CDE900401A
:101F2000BC0004F1804404F5B844206802AD20F4FC
:101F3000E04020F07F00384380B22060206805EB4D
:101F4000420232F8082C20F4EC4020F070001043DC
:101F500049B280B200292060DDF8208032484FEA83
:101F6000C70C2ADB4FB30268318B92B294442F4ADC
:101F70004FEA4C0C42F80C1030461A463946FFF72F
:101F8000A5FFB8F1000F46D1236823F4415323F095
:101F900030031B041B0C2360236823F4804323F0CD
:101FA00070039BB283F4405343F4004343F0800337
:101FB0002360338B184430832AE00568328BADB23E
:101FC00065446D0005F1804505F5C0452A60B8F10E
:101FD000000F04D00C2505FB0765C5F8688025684F
:101FE0001A4425F4E04525F030052D042D0C25601C
:101FF0002568002925F4E04525F04005ADB285F0BF
:10200000200545F4004545F0800525603283AADAB5
:1020100002B0BDE8F0810C2101FB0767C7F86C80B6
:10202000B2E700BF00020004505C004008600040BE
:1020300048F2800170B50B4A0B4E0C4D0C4C1368E6
:1020400033400B439BB2136013682B400B439BB28E
:1020500042F8043BA242F2D10368DB7920335B00F3
:10206000038370BD045C0040BF8FFFFF8FBFFFFF85
:10207000205C004010B5002933D1002A14BF102481
:1020800020242B48036823F4E04323F040036340FB
:102090001BB243F4004343F080039BB2036089000A
:1020A00001F1804101F5B8413AB90B6823F441537D
:1020B00023F030031B041B0C0B60002A14BF4FF4E9
:1020C00080524FF440520B6823F4804323F0700396
:1020D00053401BB243F4004343F080039BB20B60B8
:1020E00024E00B06DBD5002A14BF1022202201F0C9
:1020F0007F034FEA830303F1804303F5B843196874
:1021000021F4E04121F0400182EA010212B242F4DE
:10211000004242F0800292B21A6007D11A6822F49B
:10212000E04222F030021204120C1A6010BD00BF0F
:10213000005C00400B060ED501F07F01890001F123
:10214000804101F5B841086800F03000102814BF44
:10215000002001207047890001F1804101F5B8415C
:10216000086800F44050B0F5805FF0E70B0612D429
:102170000B4B0C485A54890001F1804101F5B841DC
:102180000B6803409BB23AB183F4005343F400431D
:1021900043F080030B60704783F44053F6E700BFC1
:1021A000280200208FBFFFFF0846F8B51D4600F04B
:1021B0007F039C0004F1804404F5B8441146226872
:1021C00002F03002302A28D0154F2A463868DE0047
:1021D00080B200EBC300400000F1804000F5C04039
:1021E0000088400000F1804000F5C040FFF7FAFD94
:1021F0003B689BB21E440B4B76009D51216821F435
:10220000E04121F0400189B281F0300141F4004108
:1022100041F0800121602846F8BD0025FBE700BFA2
:10222000505C004004600040F8B58D0005F1804529
:1022300005F5B8451C462B680E4603F44053B3F52C
:10224000405F10463BD01F4F1F4A3B68C9009BB2FE
:1022500003EBC6035B00D358C3F30903A34206DABA
:102260003B689BB20B445B00D458C4F309043B6841
:1022700022469BB21944154B4900595A490001F1B5
:10228000804101F5C041FFF7B9FD2B6823F0F00351
:102290001B051B0D43F080032B600D4B9B5D63B949
:1022A000296821F4804121F0700189B281F4405104
:1022B00041F4004141F0800129602046F8BD00242E
:1022C000FBE700BF505C00400C600040086000402D
:1022D00028020020374A2DE9F0411368044613F420
:1022E000806F16469FB208D0BDE8F0414FF6FF332D
:1022F000136040230383FFF712B91D041FD503F0B9
:102300000F084FEA880505F1804513F0100305F525
:10231000B84536D02B6819053CD50823414600F155
:102320003002FFF781FF022308EB480213441A33FF
:1023300054F82330002B2FD04146204698473A05C9
:1023400005D54FF2FF733360236A03B19847FB044E
:1023500005D54EF6FF733360636A03B1984717F4EF
:10236000007F154D05D04FF6FF52A36A3260E3B1EE
:102370009847A36ACBB12B6843F400732B60BDE888
:10238000F0812A6822F0F0021205120D42F4004298
:102390002A60C9E70123C7E72B6823F0F0031B0578
:1023A0001B0D43F080032B60C9E72B6823F40073F7
:1023B000E4E700BF445C0040405C00400A449142B6
:1023C00000F1FF3300D1704710B511F8014B914275
:1023D00003F8014FF9D110BD034613F8012B002A71
:1023E000FBD1181A01387047FFFFFF80FFFFFF8005
:1023F000FFFFFF80FFFFFF80FFFFFF80FFFFFF80E9
:10240000FFFFFF80FFFFFF80FFFFFF80FFFFFF80D8
:10241000FFFFFF80FFFFFF80E82300080C0019008A
:1024200008000000FFFFFF80FFFFFF80FFFFFF802D
:10243000FF0FFF80FF0FFF80FC018F80FC018F806A
:10244000FC018F80FF0FFF80FFFFFF80FFFFFF80F9
:10245000FFFFFF80242400080C0019000800000082
:10246000FFFFFF80FC3FFF80FC3FFF80FC3FFF80C1
:10247000FFFFFF80FFFFFF80FFFFFF80FC3FFF802B
:10248000FC3FFF80FC3FFF80FFFFFF80FFFFFF80DE
:10249000602400080C00190008000000FFFFFF8006
:1024A000FFBF7F80FFBF7F80FC000F80FC000F809C
:1024B000FC000F80FFBF7F80FFBF7F80FC000F808C
:1024C000FC000F80FC000F80FFBF7F809C24000871
:1024D0000C00190008000000FFFFFF80FE3FBF80D6
:1024E000FE3FBF80FC0F8F80E1E3E180E1E3E1800C
:1024F000E1F1E180FCFC0F80FCFC0F80FEFE3F80E0
:10250000FFFFFF80FFFFFF80D82400080C001900A8
:1025100008000000FC7FFF80F83E3F80F83E3F80CF
:10252000FBB8FF80FBB87F80F8118F80FC660780C6
:10253000FC660780FF8EF780FE3E0780FE3E078028
:10254000FFFF8F80142500080C0019000800000010
:10255000FFFFFF80FE303F80FC000F80FC000F80FB
:10256000FDEFEF80FDEFEF80FC0DCF80FE3C3F8064
:10257000FE3C3F80FFFC0F80FFFDEF80FFFDEF8002
:10258000502500080C00190008000000FFFFFF8024
:10259000FFFFFF80FFFFFF80FFFFFF80FC3FFF800A
:1025A000FC3FFF80FC3FFF80FFFFFF80FFFFFF80BD
:1025B000FFFFFF80FFFFFF80FFFFFF808C250008EB
:1025C0000C00190008000000FFFFFF80FFFFFF80E4
:1025D000FFFFFF80FFC03F80FFC03F80FE000780FD
:1025E000FC3FC380FC3FC380FDFFFB80FFFFFF80FB
:1025F000FFFFFF80FFFFFF80C82500080C001900C7
:1026000008000000FFFFFF80FFFFFF80FFFFFF804B
:10261000FDFFFB80FDFFFB80FC3FC380FE000780C9
:10262000FE000780FFC03F80FFFFFF80FFFFFF80AD
:10263000FFFFFF80042600080C00190008000000BE
:10264000FFFFFF80FFF7FF80FFF7FF80FFB6FF80EF
:10265000FF80FF80FF80FF80FFC3FF80FF80FF803F
:10266000FF80FF80FFB6FF80FFF7FF80FFF7FF804E
:10267000402600080C00190008000000FFFFFF8042
:10268000FFFBFF80FFFBFF80FFFBFF80FF807F8061
:10269000FF807F80FF807F80FFFBFF80FFFBFF804C
:1026A000FFFBFF80FFFFFF80FFFFFF807C2600080D
:1026B0000C00190008000000FFFFFF80FFFFFF80F3
:1026C000FFFFFF80FFFFFF80FFFF8D80FFFF8D80FA
:1026D000FFFF8180FFFF8380FFFF8380FFFFFF807C
:1026E000FFFFFF80FFFFFF80B82600080C001900E5
:1026F00008000000FFFFFF80FFF7FF80FFF7FF806B
:10270000FFF7FF80FFF7FF80FFF7FF80FFF7FF80F5
:10271000FFF7FF80FFF7FF80FFF7FF80FFFFFF80DD
:10272000FFFFFF80F42600080C00190008000000DD
:10273000FFFFFF80FFFFFF80FFFFFF80FFFFFF80A5
:10274000FFFF8F80FFFF8F80FFFF8F80FFFF8F8055
:10275000FFFF8F80FFFFFF80FFFFFF80FFFFFF80F5
:10276000302700080C00190008000000FFFFFF8060
:10277000FFFFC780FFFFC780FFFE0780FFF03F809D
:10278000FFF03F80FF81FF80FC0FFF80FC0FFF8088
:10279000FC7FFF80FFFFFF80FFFFFF806C270008AA
:1027A0000C00190008000000FFFFFF80FFFFFF8002
:1027B000FFFFFF80FE003F80FE003F80FC000F8097
:1027C000FDFC6F80FD8C6F80FD8FEF80FC000F8023
:1027D000FC000F80FE003F80A82700080C001900B5
:1027E00008000000FFFFFF80FFBFFF80FFBFFF80EA
:1027F000FFBFFF80FF3FFF80FF3FFF80FC000F8097
:10280000FC000F80FC000F80FFFFFF80FFFFFF80B8
:10281000FFFFFF80E42700080C00190008000000FB
:10282000FFFFFF80FF1F8F80FF1F8F80FC1E0F8028
:10283000FDFC6F80FDFC6F80FDF1EF80FC03EF80FD
:10284000FC03EF80FF0FEF80FFFFFF80FFFFFF80A3
:10285000202800080C00190008000000FFFFFF807E
:10286000FF1E3F80FF1E3F80FC1E0F80FDF7EF80A4
:10287000FDF7EF80FDF7EF80FC000F80FC000F807C
:10288000FF0C3F80FFFFFF80FFFFFF805C280008F8
:102890000C00190008000000FFFFFF80FFFC7F8094
:1028A000FFFC7F80FC007F80FC037F80FC037F8037
:1028B000FFFF7F80FF800F80FF800F80FF800F80F1
:1028C000FFFF7F80FFFF7F80982800080C00190021
:1028D00008000000FFFFFF80FC07EF80FC07EF808F
:1028E000FC07EF80FDF7EF80FDF7EF80FDF78F80AD
:1028F000FDF01F80FDF01F80FDFC7F80FFFFFF804B
:10290000FFFFFF80D42800080C0019000800000019
:10291000FFFFFF80FFE03F80FFE03F80FF800F80F0
:10292000FC0FEF80FC0FEF80FC6FEF80FDE00F806D
:10293000FDE00F80FFF03F80FFFFFF80FFFFFF8083
:10294000102900080C00190008000000FFFFFF809C
:10295000FDFFFF80FDFFFF80FDFF0F80FDFF0F806B
:10296000FDF00F80FD81FF80FD81FF80FC0FFF8067
:10297000FC7FFF80FC7FFF80FFFFFF804C29000869
:102980000C00190008000000FFFFFF80FF0C3F80D3
:10299000FF0C3F80FC000F80FDE3EF80FDE1EF8046
:1029A000FDF1EF80FC000F80FC000F80FF0C3F80EA
:1029B000FFFFFF80FFFFFF80882900080C0019003F
:1029C00008000000FFFFFF80FF03FF80FF03FF8080
:1029D000FC01EF80FDFD8F80FDFD8F80FDFC0F80F1
:1029E000FC007F80FC007F80FF01FF80FFFFFF80F5
:1029F000FFFFFF80C42900080C0019000800000038
:102A0000FFFFFF80FFFFFF80FFFFFF80FFFFFF80D2
:102A1000FF8F8F80FF8F8F80FF8F8F80FF8F8F8042
:102A2000FF8F8F80FFFFFF80FFFFFF80FFFFFF8092
:102A3000002A00080C00190008000000FFFFFF80BA
:102A4000FFFFFF80FFFFFF80FFFFFF80FF8F8D8074
:102A5000FF8F8D80FF8F8180FF8F8380FF8F83802A
:102A6000FFFFFF80FFFFFF80FFFFFF803C2A000881
:102A70000C00190008000000FFFFFF80FFF7FF8037
:102A8000FFF7FF80FFE1FF80FF8C7F80FF8C7F805E
:102A9000FE3E3F80FC7F8F80FC7F8F80FDFFEF80BC
:102AA000FFFFFF80FFFFFF80782A00080C0019005D
:102AB00008000000FFFFFF80FFEDFF80FFEDFF80BB
:102AC000FFEDFF80FFEDFF80FFEDFF80FFEDFF805A
:102AD000FFEDFF80FFEDFF80FFEDFF80FFFFFF8038
:102AE000FFFFFF80B42A00080C0019000800000056
:102AF000FFFFFF80FDFFEF80FDFFEF80FC7F8F80F9
:102B0000FE3E3F80FE3E3F80FF8C7F80FFE1FF80E6
:102B1000FFE1FF80FFF7FF80FFFFFF80FFFFFF80E7
:102B2000F02A00080C00190008000000FFFFFF80D9
:102B3000FE3FFF80FE3FFF80FC3FFF80FDF18F8066
:102B4000FDF18F80FDC18F80FC0FFF80FC0FFF80A7
:102B5000FE3FFF80FFFFFF80FFFFFF802C2B000860
:102B60000C00190008000000FE003F80FE003F80BE
:102B7000FC000F80FDFFEF80FDFFEF80FDF1EF8097
:102B8000FDE06F80FDE06F80FDEF6F80FC006F80E7
:102B9000FC006F80FE006F80682B00080C0019009D
:102BA00008000000FFFFFF80FF800F80FF800F8084
:102BB000FF000F80FC7DFF80FC7DFF80FC7DFF809F
:102BC000FE000F80FE000F80FF800F80FFFFFF8060
:102BD000FFFFFF80A42B00080C0019000800000074
:102BE000FFFFFF80FC000F80FC000F80FC000F80C7
:102BF000FDF7EF80FDF7EF80FDF7EF80FC000F8021
:102C0000FC000F80FF0C3F80FFFFFF80FFFFFF8075
:102C1000E02B00080C00190008000000FFFFFF80F7
:102C2000FE003F80FE003F80FC000F80FDFFEF8034
:102C3000FDFFEF80FDFFEF80FC3E0F80FC3E0F802C
:102C4000FE3E3F80FFFFFF80FFFFFF801C2C00083F
:102C50000C00190008000000FFFFFF80FC000F803F
:102C6000FC000F80FC000F80FDFFEF80FDFFEF8078
:102C7000FC7F8F80FE003F80FE003F80FF807F80D2
:102C8000FFFFFF80FFFFFF80582C00080C00190099
:102C900008000000FFFFFF80FC000F80FC000F8099
:102CA000FC000F80FDF7EF80FDF7EF80FDF7EF8070
:102CB000FDF7EF80FDF7EF80FDFFEF80FFFFFF8066
:102CC000FFFFFF80942C00080C0019000800000092
:102CD000FFFFFF80FC000F80FC000F80FC000F80D6
:102CE000FDF7FF80FDF7FF80FDF7FF80FDF7FF8018
:102CF000FDF7FF80FDFFFF80FFFFFF80FFFFFF80EC
:102D0000D02C00080C00190008000000FFFFFF8015
:102D1000FE003F80FE003F80FC000F80FDFFEF8043
:102D2000FDFDEF80FDFDEF80FC3C0F80FC3C0F8043
:102D3000FE3C0F80FFFFFF80FFFFFF800C2D00088F
:102D40000C00190008000000FFFFFF80FC000F804E
:102D5000FC000F80FC000F80FFF7FF80FFF7FF8073
:102D6000FFF7FF80FC000F80FC000F80FC000F804D
:102D7000FFFFFF80FFFFFF80482D00080C001900B7
:102D800008000000FFFFFF80FFFFFF80FFFFFF80C4
:102D9000FDFFEF80FDFFEF80FC000F80FC000F8047
:102DA000FC000F80FDFFEF80FFFFFF80FFFFFF8033
:102DB000FFFFFF80842D00080C00190008000000B0
:102DC000FFFFFF80FFFE3F80FFFE3F80FFFE0F8082
:102DD000FFFFEF80FFFFEF80FFFFEF80FC000F8021
:102DE000FC000F80FC003F80FFFFFF80FFFFFF80A3
:102DF000C02D00080C00190008000000FFFFFF8034
:102E0000FC000F80FC000F80FC000F80FFF7FF80AC
:102E1000FFF7FF80FF807F80FC080F80FC080F8099
:102E2000FC7F8F80FFFFFF80FFFFFF80FC2D0008ED
:102E30000C00190008000000FFFFFF80FC000F805D
:102E4000FC000F80FC000F80FFFFEF80FFFFEF8092
:102E5000FFFFEF80FFFFEF80FFFFEF80FFFFEF80BE
:102E6000FFFFFF80FFFFFF80382E00080C001900D5
:102E700008000000FFFFFF80FC000F80FC000F80B7
:102E8000FC000F80FF9FFF80FFE1FF80FFC1FF80FC
:102E9000FFBFFF80FFBFFF80FC000F80FC000F80A2
:102EA000FC000F80742E00080C00190008000000C0
:102EB000FFFFFF80FC000F80FC000F80FC000F80F4
:102EC000FF8FFF80FF8FFF80FFE3FF80FFF1FF8018
:102ED000FFF1FF80FC000F80FC000F80FC000F80E2
:102EE000B02E00080C00190008000000FFFFFF8052
:102EF000FE003F80FE003F80FC000F80FDFFEF8062
:102F0000FDFFEF80FDFFEF80FC000F80FC000F80D5
:102F1000FE003F80FFFFFF80FFFFFF80EC2E0008D8
:102F20000C00190008000000FFFFFF80FC000F806C
:102F3000FC000F80FC000F80FDF7FF80FDF7FF8095
:102F4000FDF7FF80FC07FF80FC07FF80FF0FFF807D
:102F5000FFFFFF80FFFFFF80282F00080C001900F3
:102F600008000000FFFFFF80FE003F80FE003F8062
:102F7000FC000F80FDFFEF80FDFFEF80FDFFE38091
:102F8000FC000180FC000180FE003D80FFFFFF800F
:102F9000FFFFFF80642F00080C00190008000000EC
:102FA000FFFFFF80FC000F80FC000F80FC000F8003
:102FB000FDF7FF80FDF7FF80FDF0FF80FC000F8034
:102FC000FC000F80FF0F0F80FFFFFF80FFFFFF80DF
:102FD000A02F00080C00190008000000FFFFFF8070
:102FE000FE3FBF80FE3FBF80FC0F8F80FDE3EF8080
:102FF000FDE3EF80FDF1EF80FCFC0F80FCFC0F8017
:10300000FEFE3F80FFFFFF80FFFFFF80DC2F0008F8
:103010000C00190008000000FFFFFF80FDFFFF808B
:10302000FDFFFF80FDFFFF80FC000F80FC000F8094
:10303000FC000F80FDFFFF80FDFFFF80FDFFFF8094
:10304000FFFFFF80FFFFFF80183000080C00190011
:1030500008000000FFFFFF80FC003F80FC003F8075
:10306000FC000F80FFFFEF80FFFFEF80FFFFEF808E
:10307000FC000F80FC000F80FC003F80FFFFFF8002
:10308000FFFFFF80543000080C001900080000000A
:10309000FFFFFF80FC007F80FC007F80FC001F8022
:1030A000FFFF8F80FFFF8F80FFFF8F80FC003F803E
:1030B000FC003F80FC007F80FFFFFF80FFFFFF8060
:1030C000903000080C00190008000000FFFFFF808E
:1030D000FC01FF80FC01FF80FC000F80FFFF0F80E0
:1030E000FFFE0F80FFE0FF80FFFF0F80FFFF0F80DC
:1030F000FC000F80FC01FF80FC01FF80CC30000849
:103100000C00190008000000FFFFFF80FC7F0F800B
:10311000FC180F80FC180F80FF87FF80FFE7FF80FF
:10312000FFE1FF80FC180F80FC180F80FC7F0F80F0
:10313000FFFFFF80FFFFFF80083100080C0019002F
:1031400008000000FFFFFF80FC0FFF80FC0FFF80E6
:10315000FC03FF80FFF00F80FFF00F80FFF00F8077
:10316000FC03FF80FC03FF80FC0FFF80FFFFFF805C
:10317000FFFFFF80443100080C0019000800000028
:10318000FFFFFF80FDFE0F80FDFE0F80FDFC0F8026
:10319000FDF1EF80FDF1EF80FDE3EF80FC0FEF80AC
:1031A000FC0FEF80FC1FEF80FFFFFF80FFFFFF8021
:1031B000803100080C00190008000000FFFFFF80AC
:1031C000FFFFFF80FFFFFF80FC000000FC0000000D
:1031D000FC000000FDFFFF00FDFFFF00FDFFFF0002
:1031E000FFFFFF80FFFFFF80FFFFFF80BC31000873
:1031F0000C00190008000000FFFFFF80FC7FFF802B
:10320000FC7FFF80FC0FFF80FF81FF80FF81FF803C
:10321000FFF03F80FFFE0780FFFE0780FFFFC780B3
:10322000FFFFFF80FFFFFF80F83100080C0019004E
:1032300008000000FFFFFF80FFFFFF80FFFFFF800F
:10324000FDFFFF00FDFFFF00FDFFFF00FC00000091
:10325000FC000000FC000000FFFFFF80FFFFFF807C
:10326000FFFFFF80343200080C0019000800000046
:10327000FFFFFF80FDFFFF80FDFFFF80F1FFFF806C
:10328000C7FFFF80C7FFFF80C7FFFF80E1FFFF8010
:10329000E1FFFF80FDFFFF80FFFFFF80FFFFFF805A
:1032A000703200080C00190008000000FFFFFE80CB
:1032B000FFFFFE80FFFFFE80FFFFFE80FFFFFE801E
:1032C000FFFFFE80FFFFFE80FFFFFE80FFFFFE800E
:1032D000FFFFFE80FFFFFE80FFFFFE80AC32000894
:1032E0000C00190008000000FFFFFF80FFFFFF80B7
:1032F000EFFFFF80EFFFFF80E3FFFF80E3FFFF8032
:10330000E1FFFF80FDFFFF80FDFFFF80FFFFFF80EB
:10331000FFFFFF80FFFFFF80E83200080C0019006C
:1033200008000000FFFFFF80FFFE3F80FFFE3F80A0
:10333000FFBC0F80FFBDEF80FFBDEF80FFBDEF80C2
:10334000FF800F80FF800F80FFC00F80FFFFFF8096
:10335000FFFFFF80243300080C0019000800000064
:10336000FFFFFF80FC000F80FC000F80FC000F803F
:10337000FFBFEF80FFBFEF80FFBFEF80FF800F80B8
:10338000FF800F80FFE01F80FFFFFF80FFFFFF80B7
:10339000603300080C00190008000000FFFFFF80E8
:1033A000FFE03F80FFE03F80FF800F80FFBFEF80A6
:1033B000FFBFEF80FFBFEF80FF8F8F80FF8F8F8079
:1033C000FFEFBF80FFFFFF80FFFFFF809C330008FF
:1033D0000C00190008000000FFFFFF80FFE01F80C5
:1033E000FF800F80FF800F80FFBFEF80FFBFEF8067
:1033F000FFBFEF80FC000F80FC000F80FC000F80FF
:10340000FFFFFF80FFFFFF80D83300080C0019008A
:1034100008000000FFFFFF80FFE01F80FFE01F802B
:10342000FF800F80FFBDEF80FFBDEF80FFBDEF800D
:10343000FF81EF80FF81EF80FFE1FF80FFFFFF80D2
:10344000FFFFFF80143400080C0019000800000082
:10345000FFFFFF80FFF7FF80FFF7FF80FF000F8077
:10346000FC000F80FC000F80FDF7FF80FDF7FF8060
:10347000FDF7FF80FDF7FF80FFFFFF80FFFFFF806C
:10348000503400080C00190008000000FFFFFF8006
:10349000FFE01F00FF800F00FF800F00FFBFEF0065
:1034A000FFBFEF00FFBFEF00FF800000FF800000C4
:1034B000FF800080FFFFFF80FFFFFF808C3400084B
:1034C0000C00190008000000FFFFFF80FC000F80C7
:1034D000FC000F80FC000F80FFBFFF80FFBFFF805C
:1034E000FFBFFF80FF800F80FF800F80FFE00F8015
:1034F000FFFFFF80FFFFFF80C83400080C001900A9
:1035000008000000FFFFFF80FFBFEF80FFBFEF80DC
:10351000FFBFEF80F1800F80F1800F80F1800F807E
:10352000FFFFEF80FFFFEF80FFFFEF80FFFFFF80D7
:10353000FFFFFF80043500080C00190008000000A0
:10354000FFFFFF80FFFFFF00FFFFFF00FFBFFF0047
:10355000FFBFFF00FFBFFF00F8800000F880008081
:10356000F8800080FFFFFF80FFFFFF80FFFFFF80EC
:10357000403500080C00190008000000FFFFFF8024
:10358000FC000F80FC000F80FC000F80FFFDFF801F
:10359000FFFDFF80FFF0FF80FF820F80FF820F8022
:1035A000FF8F8F80FFFFFF80FFFFFF807C350008CB
:1035B0000C00190008000000FFFFFF80FDFFEF80F6
:1035C000FDFFEF80FDFFEF80FC000F80FC000F800F
:1035D000FC000F80FFFFEF80FFFFEF80FFFFEF8019
:1035E000FFFFFF80FFFFFF80B83500080C001900C7
:1035F00008000000FFFFFF80FF800F80FF800F802A
:10360000FF800F80FFBFFF80FF801F80FF801F8033
:10361000FFBFFF80FFBFFF80FF800F80FF800F8014
:10362000FFE00F80F43500080C00190008000000CE
:10363000FFFFFF80FF800F80FF800F80FF800F80E3
:10364000FFBFFF80FFBFFF80FFBFFF80FF800F80B5
:10365000FF800F80FFE00F80FFFFFF80FFFFFF80F4
:10366000303600080C00190008000000FFFFFF8042
:10367000FFE01F80FFE01F80FF800F80FFBFEF8013
:10368000FFBFEF80FFBFEF80FF800F80FF800F80C4
:10369000FFE01F80FFFFFF80FFFFFF806C36000808
:1036A0000C00190008000000FFFFFF80FF800000F1
:1036B000FF800000FF800000FFBFEF80FFBFEF80B2
:1036C000FFBFEF80FF800F80FF800F80FFE01F8033
:1036D000FFFFFF80FFFFFF80A83600080C001900E5
:1036E00008000000FFFFFF80FFE01F80FF800F80C9
:1036F000FF800F80FFBFEF80FFBFEF80FFBFEF8035
:10370000FF800000FF800000FF800000FFFFFF80BF
:10371000FFFFFF80E43600080C00190008000000DD
:10372000FFFFFF80FF800F80FF800F80FF800F80F2
:10373000FFF7FF80FFE7FF80FFEFFF80FF8FFF8035
:10374000FF8FFF80FF8FFF80FFFFFF80FFFFFF8065
:10375000203700080C00190008000000FFFFFF8060
:10376000FFE3EF80FFE3EF80FF81EF80FFBDEF809D
:10377000FFBDEF80FFBDEF80FFBC0F80FFBC0F805F
:10378000FFBE3F80FFFFFF80FFFFFF805C37000828
:103790000C00190008000000FFFFFF80FFBFFF8042
:1037A000FFBFFF80FC003F80FC000F80FC000F800B
:1037B000FFBFEF80FFBFEF80FFBFEF80FFBFEF8055
:1037C000FFFFFF80FFFFFF80983700080C00190003
:1037D00008000000FFFFFF80FF803F80FF800F8018
:1037E000FF800F80FFFFEF80FFFFEF80FFFFEF8084
:1037F000FF800F80FF800F80FF800F80FFFFFF8022
:10380000FFFFFF80D43700080C00190008000000FB
:10381000FFFFFF80FF807F80FF807F80FF801F8011
:10382000FFFF8F80FFFF8F80FFFF8F80FF803F8033
:10383000FF803F80FF807F80FFFFFF80FFFFFF80D2
:10384000103800080C00190008000000FFFFFF807E
:10385000FF807F80FF807F80FF800F80FFFF8F8051
:10386000FFFF8F80FFE07F80FFFF8F80FFFF8F8053
:10387000FF800F80FF807F80FF807F804C380008B2
:103880000C00190008000000FFFFFF80FF8F8F80F1
:10389000FF8F8F80FF860F80FFF0FF80FFF0FF809B
:1038A000FFF0FF80FF860F80FF860F80FF8F8F80E5
:1038B000FFFFFF80FFFFFF80883800080C00190021
:1038C00008000000FFFFFF00FFFFFF00FF803F0038
:1038D000FF800F00FF800F00FFFFEC00FFFFE08084
:1038E000FFFFE080FF800380FF803F80FF803F80FC
:1038F000FFFFFF80C43800080C001900080000001A
:10390000FFFFFF80FFBF8F80FFBF8F80FFBE0F8054
:10391000FFBC6F80FFBC6F80FFB1EF80FF83EF8043
:10392000FF83EF80FF8FEF80FFFFFF80FFFFFF80AF
:10393000003900080C00190008000000FFFFFF809C
:10394000FFFDFF80FFFDFF80FFF0FF80FE06078088
:10395000FE060780FC0F0380FDFFFB80FDFFFB8060
:10396000FFFFFF80FFFFFF80FFFFFF803C39000863
:103970000C00190008000000FFFFFF80FFFFFF8020
:10398000FFFFFF80FFFFFF80FC000000FC00000045
:10399000FC000000FFFFFF80FFFFFF80FFFFFF80B4
:1039A000FFFFFF80FFFFFF80783900080C0019003F
:1039B00008000000FFFFFF80FFFFFF80FFFFFF8088
:1039C000FDFFFB80FDFFFB80FC0F0380FE060780F0
:1039D000FE060780FFF0FF80FFFDFF80FFFDFF80F8
:1039E000FFFFFF80B43900080C0019000800000038
:1039F000FE3FFF80FE3FFF80F8FFFF80F8FFFF8063
:103A0000FBFFFF80F83FFF80FE3FFF80FE3FFF800F
:103A1000FFBFFF80FE3FFF80FCFFFF80FFFFFF80B6
:103A2000F03900080C001900080000002000000018
:103A3000182400082100000054240008220000007F
:103A40009024000823000000CC240008240000007B
:103A50000825000825000000442500082600000075
:103A60008025000827000000BC2500082800000071
:103A7000F825000829000000342600082A0000006C
:103A8000702600082B000000AC2600082C00000067
:103A9000E82600082D000000242700082E00000062
:103AA000602700082F0000009C270008300000005D
:103AB000D827000831000000142800083200000058
:103AC00050280008330000008C2800083400000053
:103AD000C82800083500000004290008360000004E
:103AE00040290008370000007C2900083800000049
:103AF000B829000839000000F42900083A00000045
:103B0000302A00083B0000006C2A00083C0000003E
:103B1000A82A00083D000000E42A00083E0000003A
:103B2000202B00083F0000005C2B00084000000034
:103B3000982B000841000000D42B00084200000030
:103B4000102C0008430000004C2C0008440000002A
:103B5000882C000845000000C42C00084600000026
:103B6000002D0008470000003C2D00084800000020
:103B7000782D000849000000B42D00084A0000001C
:103B8000F02D00084B0000002C2E00084C00000017
:103B9000682E00084D000000A42E00084E00000012
:103BA000E02E00084F0000001C2F0008500000000D
:103BB000582F000851000000942F00085200000008
:103BC000D02F0008530000000C3000085400000003
:103BD00048300008550000008430000856000000FE
:103BE000C030000857000000FC30000858000000FA
:103BF0003831000859000000743100085A000000F4
:103C0000B03100085B000000EC3100085C000000EF
:103C1000283200085D000000643200085E000000E9
:103C2000A03200085F000000DC32000860000000E5
:103C300018330008610000005433000862000000DF
:103C40009033000863000000CC33000864000000DB
:103C500008340008650000004434000866000000D5
:103C60008034000867000000BC34000868000000D1
:103C7000F834000869000000343500086A000000CC
:103C8000703500086B000000AC3500086C000000C7
:103C9000E83500086D000000243600086E000000C2
:103CA000603600086F0000009C36000870000000BD
:103CB000D8360008710000001437000872000000B8
:103CC00050370008730000008C37000874000000B3
:103CD000C8370008750000000438000876000000AE
:103CE00040380008770000007C38000878000000A9
:103CF000B838000879000000F43800087A000000A5
:103D0000303900087B0000006C3900087C0000009E
:103D1000A83900087D000000E43900087E0000009A
:103D2000203A00085F0000002C3A000854696E79C0
:103D3000204D6F6E69746F722076312E3000000056
:103D4000436F6E6E656374205553422E2E2E000015
:103D500055534220636F6E6E65637465642E204315
:103D60006F6E666967206973207365742E2E2E004E
:103D7000436F6E6E656374656420746F20686F7343
:103D80007420736F6674776172652E2E2E000000AA
:103D90005475746F7269616C00000000446973703F
:103DA0006C617900446973706C617920496E746547
:103DB0007266616365000000903D00089C3D00084C
:103DC00018010020A43D0008070501024000000082
:103DD0000000000000000007058201400001000013
:103DE00000000000000000000904000002FF0000C5
:103DF00004C83D00080000000000000000000000B2
:103E0000000000000100000000000000E83D000884
:103E10000902000001010080FA003E0008000000D5
:103E200012010002FF000040FECAAFCE6100010295
:103E300003010000303132333435363738394142EE
:103E40004344454600000000B51D0008BD1E0008A3
:103E50000D1F000831200008752000086D210008A2
:103E600035210008A921000829220008D5220008D0
:0C3E700000000000000000000000000046
:103E7C00F000F00000127A0000127A0000127A00B2
:0400000508000F7D63
:00000001FF
