:020000040800F2
:10000000005000203D0C00081B0D0008150D0008D5
:10001000150D0008150D0008150D00080000000062
:100020000000000000000000000000001B0D0008A0
:100030001B0D0008000000001B0D0008310E000819
:10004000150D0008150D0008150D0008150D000808
:10005000150D0008150D0008150D0008150D0008F8
:10006000150D0008150D0008150D0008150D0008E8
:10007000150D0008150D0008150D0008150D0008D8
:10008000150D0008150D0008150D0008150D0008C8
:100090003D030008150D0008150D0008150D00089A
:1000A000150D0008150D0008150D0008150D0008A8
:1000B000150D0008150D0008150D0008150D000898
:1000C000150D0008150D0008150D0008150D000888
:1000D000150D0008150D0008150D0008150D000878
:1000E000150D0008150D0008150D0008150D000868
:1000F000150D0008150D0008150D0008150D000858
:10010000150D0008150D0008150D0008150D000847
:10011000150D0008150D0008150D0008150D000837
:10012000150D0008150D0008150D0008150D000827
:10013000150D0008150D0008150D0008150D000817
:10014000150D0008150D0008150D0008150D000807
:1001500080B500AF00F066FF4FF4417000F0A8FFDB
:1001600040F2973000F0A4FF00BF80BD80B500AF23
:10017000FFF7EEFF00F042FE00F09AFB42F2413042
:1001800000F070FBEF23EF220021002000F0E2F8E6
:1001900000F002F8FEE7000080B584B004AF40F242
:1001A000172000F093FF4FF48053002201211648DE
:1001B00000F04CFE4FF48051134800F078FE5020C0
:1001C00000F002FE00F0B0FD4FF4807302930F4B7D
:1001D0000193042300930E4B0E4A0F490F4800F081
:1001E000CBFF03460E4A13600D4B1B680D491846A2
:1001F00001F0B8FB8021142001F0A6FC142001F0CE
:1002000095FC00BFBD4680BD0008014018000020DD
:10021000D0200008182100082821000850210008DB
:10022000140000202902000880B584B002AF786075
:100230000B467B80184B00934023022201217868F3
:1002400000F0C6FF154B00221A70154B1868154BAD
:100250007F22412101F0AAF8134B1B8800931E2333
:100260001E223C213C2000F0CFFA0F4B1B884FF69A
:10027000FF72934201D1002201E04FF6FF720A4B58
:100280001A80EF23EF220021002000F063F800BF66
:100290000837BD4680BD00BF0103000818010020DB
:1002A00014000020AD0200080000002080B586B0D8
:1002B00002AFF860B9607A603B60104B1B88009316
:1002C0001E231E223C213C2000F09EFA0B4B1B8873
:1002D0004FF6FF72934201D1002201E04FF6FF7208
:1002E000064B1A80EF23EF220021002000F032F8A5
:1002F000012318461037BD4680BD00BF0200002014
:1003000080B594B000AF78600B46FB700A4B18685C
:1003100007F10C024023012100F081FF0346FB643A
:10032000FA6C07F10C031146184600F009FA00BFF9
:100330005037BD4680BD00BF1400002080B500AF1F
:10034000034B1B68184600F03FFF00BF80BD00BF95
:100350001400002090B484B000AF04460846114653
:100360001A462346FB800346BB800B467B80134620
:100370003B802A237B73824B04221A80814A7B7B39
:10038000136000BF00BF00BF00BF00BF00BF00BFC1
:1003900000BF00BF00BF00BF00BF00BF00BF00BF65
:1003A00000BF00BF00BF00BF00BF00BF764B0422EC
:1003B0001A60FB881B0A9BB2DAB2724B1A6000BF4C
:1003C00000BF00BF00BF00BF00BF00BF00BF00BF35
:1003D00000BF00BF00BF00BF00BF00BF00BF00BF25
:1003E00000BF00BF00BFFB88DAB2664B1A6000BFD7
:1003F00000BF00BF00BF00BF00BF00BF00BF00BF05
:1004000000BF00BF00BF00BF00BF00BF00BF00BFF4
:1004100000BF00BF00BF7B881B0A9BB2DAB2594BFA
:100420001A6000BF00BF00BF00BF00BF00BF00BF19
:1004300000BF00BF00BF00BF00BF00BF00BF00BFC4
:1004400000BF00BF00BF00BF00BF7B88DAB24D4BCA
:100450001A6000BF00BF00BF00BF00BF00BF00BFE9
:1004600000BF00BF00BF00BF00BF00BF00BF00BF94
:1004700000BF00BF00BF00BF00BF2B23BB73404BBA
:1004800004221A803F4ABB7B136000BF00BF00BF3D
:1004900000BF00BF00BF00BF00BF00BF00BF00BF64
:1004A00000BF00BF00BF00BF00BF00BF00BF00BF54
:1004B00000BF00BF344B04221A60BB881B0A9BB2EA
:1004C000DAB2304B1A6000BF00BF00BF00BF00BFF0
:1004D00000BF00BF00BF00BF00BF00BF00BF00BF24
:1004E00000BF00BF00BF00BF00BF00BF00BFBB8890
:1004F000DAB2244B1A6000BF00BF00BF00BF00BFCC
:1005000000BF00BF00BF00BF00BF00BF00BF00BFF3
:1005100000BF00BF00BF00BF00BF00BF00BF3B88DF
:100520001B0A9BB2DAB2174B1A6000BF00BF00BFB4
:1005300000BF00BF00BF00BF00BF00BF00BF00BFC3
:1005400000BF00BF00BF00BF00BF00BF00BF00BFB3
:1005500000BF3B88DAB20B4B1A6000BF00BF00BF80
:1005600000BF00BF00BF00BF00BF00BF00BF00BF93
:1005700000BF00BF00BF00BF00BF00BF00BF05E05D
:10058000140801400C3001401008014000BF00BFBA
:100590002C23FB730F4B04221A800F4AFB7B136042
:1005A00000BF00BF00BF00BF00BF00BF00BF00BF53
:1005B00000BF00BF00BF00BF00BF00BF00BF00BF43
:1005C00000BF00BF00BF00BF00BF00BF1037BD4667
:1005D00090BC7047140801400C30014080B4C9B091
:1005E00000AF024607F59073A3F59073196007F505
:1005F0009073A3F58D731A804B4B04221A6007F594
:100600009073A3F58D731B881B0A9BB287F8153175
:1006100007F59073A3F58D731B8887F814310023B9
:10062000A7F81E3117E0B7F81E3107F59072A2F552
:100630008A7297F81511D154B7F81E31013307F5B6
:100640009072A2F58A7297F81411D154B7F81E313E
:100650000233A7F81E31B7F81E31FF2BE3D907F597
:100660009073A3F590731B685B00C7F818314FF4C3
:100670008073A7F816314BE0B7F81621D7F8183178
:10068000934228BF1346A7F8163107F10C03C7F8A9
:100690001031B7F81631A7F80E31244AD7F81031C7
:1006A0001360234AB7F80E311360224B1B68214AAE
:1006B00043F001031360204B1B681F4A43F0020301
:1006C000136000BF1A4B1B68002BFBD100BF1B4BF4
:1006D0001B6803F00203002BF9D000BF174B1B6807
:1006E00003F08003002BF9D1134B1B68124A23F04F
:1006F000020313600F4B1B680E4A23F001031360C3
:1007000000BFB7F81631D7F81821D31AC7F8183137
:10071000D7F81831002BAFD100BF00BF07F5927793
:10072000BD4680BC704700BF100801403C0002403D
:1007300034000240300002400430014008300140E3
:1007400080B487B000AF78603960294B04221A600A
:100750003B687B614FF480737B823FE07A8A7B69E0
:10076000934228BF13467B827B68FB607B8A7B8138
:10077000204AFB681360204A7B8913601F4B1B686B
:100780001E4A43F0010313601D4B1B681C4A43F0D3
:100790000203136000BF184B1B68002BFBD100BF86
:1007A000184B1B6803F00203002BF9D000BF154B58
:1007B0001B6803F08003002BF9D1114B1B68104A12
:1007C00023F0020313600D4B1B680C4A23F0010356
:1007D000136000BF7B8A7A69D31A7B617B69002B27
:1007E000BCD100BF00BF1C37BD4680BC704700BFF6
:1007F000100801403C00024034000240300002403A
:10080000043001400830014090B583B000AF044689
:10081000084611461A462346FB800346BB800B461A
:100820007B8013463B80FA887B8813449BB2013B54
:100830009CB2BA883B8813449BB2013B9BB2B988F7
:10084000F8882246FFF786FD7B883A8803FB02F290
:100850003B8B11461846FFF7C1FE00BF0C37BD4663
:1008600090BD000080B582B000AF0346FB800E4B08
:100870001B88013B9AB20D4B1B88013B9BB20021A8
:100880000020FFF767FD084B1B881A46074B1B88A3
:1008900003FB02F2FB8811461846FFF79FFE00BFDC
:1008A0000837BD4680BD00BF0400002006000020C0
:1008B00080B586B002AF40F2023000F0F9FB4FF491
:1008C000407000F0F5FB4FF4437000F0F1FB4FF483
:1008D000207000F0EDFBA02302220321934800F0DA
:1008E000B5FA1C2300220321904800F0AFFA1C2126
:1008F0008E4800F0DAFA8E4B1B688D4A43F0807305
:1009000013608C4B8C4A1A608C4B00221A608C4B03
:1009100000221A608B4B4FF400521A60894B1B68FF
:10092000884A43F010031360864B1B68854A23F006
:1009300020031360834B1B68824A23F0400313603B
:10094000804B1B687F4A43F0800313607D4B7D4AD8
:100950001B6813607C4800F0CBFB7C4B00221A60C4
:1009600000230193002300930023022200217648F4
:1009700000F0EEFB744800F0DDFB734800F0D5FB9F
:10098000714800F0E0FB704800F0CAFB704B102289
:100990001A8000F037F96F4B10221A6000F032F91C
:1009A0000123FB716A4B04221A80634AFB791360AE
:1009B00000BF00BF00BF00BF00BF00BF00BF00BF3F
:1009C00000BF00BF00BF00BF00BF00BF00BF00BF2F
:1009D00000BF00BF00BF00BF00BF00F013F911232C
:1009E0003B725B4B04221A80534A3B7A136000BF70
:1009F00000BF00BF00BF00BF00BF00BF00BF00BFFF
:100A000000BF00BF00BF00BF00BF00BF00BF00BFEE
:100A100000BF00BF00BF00BF00F0F4F83A237B72B4
:100A20004B4B04221A80444A7B7A136000BF00BFFC
:100A300000BF00BF00BF00BF00BF00BF00BF00BFBE
:100A400000BF00BF00BF00BF00BF00BF00BF00BFAE
:100A500000BF00BF00BF5523BB723E4B04221A608B
:100A6000354ABB7A136000BF00BF00BF00BF00BFA4
:100A700000BF00BF00BF00BF00BF00BF00BF00BF7E
:100A800000BF00BF00BF00BF00BF00BF00BF00BF6E
:100A900000F0B8F83623FB722D4B04221A80264A48
:100AA000FB7A136000BF00BF00BF00BF00BF00BFE4
:100AB00000BF00BF00BF00BF00BF00BF00BF00BF3E
:100AC00000BF00BF00BF00BF00BF00BF00BF0023CA
:100AD0003B73204B04221A60174A3B7B136000BF14
:100AE00000BF00BF00BF00BF00BF00BF00BF00BF0E
:100AF00000BF00BF00BF00BF00BF00BF00BF00BFFE
:100B000000BF00BF00BF00BF21237B73104B042236
:100B10001A80094A7B7B136000BF00BF00BF00BF83
:100B200000BF00BF00BF00BF16E000BF00080140CB
:100B300004000140380002400C3001403C000240FB
:100B40003400024030000240003001401C300140BF
:100B5000140801401008014000BF00BF00BF00BFE3
:100B600000BF00BF00BF00BF00BF00BF00BF00BF8D
:100B700000BF00F047F81323BB73204B04221A80F8
:100B80001F4ABB7B136000BF00BF00BF00BF00BF98
:100B900000BF00BF00BF00BF00BF00BF00BF00BF5D
:100BA00000BF00BF00BF00BF00BF00BF00BF00BF4D
:100BB00000F028F82923FB73104B04221A80104AF6
:100BC000FB7B136000BF00BF00BF00BF00BF00BFC2
:100BD00000BF00BF00BF00BF00BF00BF00BF00BF1D
:100BE00000BF00BF00BF00BF00BF00BF00BF00F0DC
:100BF00009F800BF1037BD4680BD00BF1408014092
:100C00000C30014080B483B000AF0023FB8003E0D0
:100C100000BFFB880133FB80FB8841F2873293429F
:100C2000F6D900BF00BF0C37BD4680BC704780B40A
:100C300000AF00BFBD4680BC7047000080B584B0E7
:100C400000AF294BFB60294BBB6009E0FB681A68C9
:100C5000BB681A60FB680433FB60BB680433BB608D
:100C6000BB68234A9342F1D304E0BB681A1DBA6003
:100C700000221A60BB681F4A9342F6D31E4B1B68C2
:100C80001D4A43F400731360FFF7D1FF1B4B7B60D9
:100C900005E07B681B6898477B6804337B607B6852
:100CA000174A9342F5D3174B7B6005E07B681B68BE
:100CB00098477B6804337B607B68134A9342F5D383
:100CC000FFF754FA114B7B6005E07B681B6898477F
:100CD0007B6804337B607B680D4A9342F5D300BF89
:100CE00000BF1037BD4680BD8421000800000020F1
:100CF000140000203402002014ED00E084210008DC
:100D0000842100088421000884210008842100082F
:100D10008421000880B400AFFEE780B400AF00BFBC
:100D2000BD4680BC7047000080B584B000AF0F4B5B
:100D30001B68FB600E4B1B68BB600E4B1B687B6027
:100D4000FA687B681344FB6008220B49F86800F0DE
:100D500017F80A4B04221946B86800F011F8064B40
:100D600000221A7300BF1037BD4680BDE8F7FF1F91
:100D7000ECF7FF1FF0F7FF1F1C01002024010020EB
:100D800080B487B000AFF860B9607A6000237B61FF
:100D90000DE0FB681A0F7B69B9680B4409498A5C4E
:100DA0001A70FB681B01FB607B6901337B617A6908
:100DB0007B689A42EDDB00BF00BF1C37BD4680BC9C
:100DC000704700BF3C21000880B485B000AF786058
:100DD000094B1A687B681344FB6000BF064B1B6815
:100DE0001A46FB689B1A002BF8DC00BF00BF1437C3
:100DF000BD4680BC704700BF2C01002080B500AF0D
:100E0000002000F077FE084B1B68084AA2FB032372
:100E10005B0A013B184600F065FE00F077FE00F02B
:100E20007DFE00BF80BD00BF08000020D34D6210D2
:100E300080B400AF044B1B680133034A136000BF4A
:100E4000BD4680BC704700BF2C0100202DE9F04159
:100E50004FF00F0C00250768466843FA05F4E407D5
:100E60001CD5072D94BFBE46B646ACB24FEA8404EB
:100E70008ABF203CA4B2A4B20CFA04F82EEA0808F7
:100E800004F1020E02FA0EFE01FA04F44EEA040422
:100E900044EA0804072D94BF274626460135102D45
:100EA000DBD107604660BDE8F0810161704709044D
:100EB00001617047024A136843F080731360704702
:100EC00000100240062822D8DFE800F004090E13C3
:100ED000181D1F000F4B1868C0F3406070470D4B82
:100EE0001868C0F3C06070470A4B1868C0F34070C0
:100EF0007047084B1868C0F340407047054B1868AE
:100F0000C0F340007047044BF9E7044BF7E70020BB
:100F1000704700BF00100240201002402410024021
:100F2000024608B51046FFF7CDFF0028FAD008BDED
:100F300006280CD8DFE800F004060C11161B1D0073
:100F4000FFF7B8BF0C4A136843F080631360704723
:100F5000094A136843F08053F8E7074A136843F4DB
:100F60008033F3E7044A136843F00103EEE7034AD2
:100F7000F9E7034AF7E700BF0010024020100240E3
:100F800024100240034A136823F003030343136051
:100F9000704700BF04100240034A136823F4701323
:100FA00043EA80431360704704100240034A136809
:100FB00023F4803343EA0043136070470410024077
:100FC000034A136823F4003343EA40431360704735
:100FD00004100240034A136823F4404343EA803379
:100FE0001360704704100240034A136823F46053EF
:100FF00043EAC0231360704704100240034A136899
:1010000023F4E06343EA00231360704704100240B6
:10101000034A136823F0F00343EA00131360704798
:101020000410024008B50420FFF782FF0420FFF7F8
:1010300077FF0020FFF7A6FF0320FFF779FF0320CB
:10104000FFF76EFF0120FFF79DFF0020FFF7E0FF95
:101050000320FFF7BFFF0420FFF7D0FF0020FFF7BA
:10106000C3FF022000F080FD0720FFF795FF01205D
:10107000FFF79CFF0020FFF7A3FFFFF71BFF0020F7
:10108000FFF74EFF0220FFF77DFF044B044A05499E
:101090001360054A1160054A136008BD00A24A04A6
:1010A00008000020005125020C0000201000002044
:1010B0000122430903F1804303F50433196800F06A
:1010C0001F0002FA00F0084318607047012243092C
:1010D00003F1804303F50433196800F01F0002FA9E
:1010E00000F0014319601A6822EA00001860704796
:1010F0000A4B98420ED003F57443984206D0A3F5EC
:101100007843984209D140F20E2001E04FF4C670B6
:10111000FFF7DCBF40F20F20FAE77047003C0040C9
:10112000036843F0400303607047036823F480635F
:1011300003607047036843F400730360436823F05F
:10114000040343607047036843F48073036070478F
:1011500030B50468049D04F441542C43039D2C4392
:101160001C43144343680C4344F0040443F0040359
:1011700043600460002030BD2DE9F0411E46036845
:101180000546884617469847069BC0E90087C36016
:10119000079BC0F8DC500361BDF820308660838275
:1011A000064B0367064BC366064B83660023C0E904
:1011B0003233C0E93433BDE8F08100BFD9130008F1
:1011C00039140008BB140008D0F8DC305B6A1847FB
:1011D00010B4D0F8DC40A468A44610BC604737B512
:1011E000002504460368C582DB792A462946009516
:1011F000FFF7EEFFD4F8DC3029465B6820469847BD
:10120000E3691BB103B0BDE83040184703B030BDFF
:1012100010B4D0F8DC40E469A44610BC604710B4B8
:10122000D0F8DC40246AA44610BC6047D0F8DC301B
:101230001B691847D0F8DC309B691847D0F8DC30C0
:101240005B69184710B503680446D979838F826BB0
:1012500099420FD20B460021FFF7DAFF022384F8F0
:101260002C302368A26BD979A38F0A445B1AA2633E
:10127000A38710BD0021FFF7CBFF94F84430002B6B
:1012800014BF0223032384F82C30002384F8443055
:10129000A387A363EDE72DE9F74F04460E46054605
:1012A00000F1200A00F1380800F13C0B00F1400980
:1012B000AF6C47B95B4642463146204603B0BDE8B5
:1012C000F04F00F0BFBB317895F84D2095F84C30C9
:1012D00011408B4203D008355545E9D1EAE75B461A
:1012E000424631462046CDF80090B8470128F2D852
:1012F00003B0BDE8F08F10B5012200210446FFF7CE
:1013000095FF002384F82C3010BD70B50368828FE0
:10131000C48EDB79A41A9C42A8BF1C46816BA6B27E
:101320000A44334600210546FFF779FF864205D07F
:101330002846FFF7E0FF4FF0FF3070BDAB8FA0B243
:101340001E44AE87F9E738B50369044683638B7999
:10135000CA790D4643EA02238387FFF79CFF00B357
:10136000EB88ABB1A28F21689342C9790ED932B113
:10137000B2FBF1F301FB1322B2FA82F252092046CA
:1013800084F84420BDE83840FFF75CBF0022F6E750
:101390001A4619462046FFF73BFF042384F82C30F9
:1013A00038BD2046BDE83840FFF7A5BF70B5002422
:1013B00000F1480656F834502DB10134042CF9D10F
:1013C0004FF0FF3070BD00EBC40484F84C10284689
:1013D00084F84D20A364F5E770B50025044601228A
:1013E0002946056400F13006FFF728FFE28E2AB98E
:1013F00031462046BDE87040FFF7A5BF94F9303074
:10140000002BF5DBA38A934204D22046BDE870404E
:10141000FFF771BF2369A587A36323682946DB799A
:101420002046934234BF052306232A4684F82C30F5
:10143000BDE87040FFF702BF10B590F82C300446AD
:10144000062B12D0072B27D0052B21D1FFF75DFFEC
:10145000002809DBA28FE38E9B1A2268D27993427F
:1014600002DC062384F82C3010BDFFF74EFF002865
:10147000FADB204604F13001FFF70DFF38B10023FD
:1014800020461A461946FFF7C3FE0423EAE7204622
:10149000BDE81040FFF72FBF00231A461946FFF79B
:1014A000BEFE002384F82C30236C1BB1204604F1CF
:1014B0003001984700232364D6E710B590F82C300C
:1014C0000446032B07D0042B0ED0022B23D1BDE8FA
:1014D0001040FFF7B7BE0723002280F82C301146DA
:1014E000BDE81040FFF7AABE036C13B100F1300154
:1014F000984794F8303053B994F83130052B06D121
:10150000618ED4F8DC3020465B68C9B2984700236E
:1015100084F82C3010BDBDE81040FFF7ECBE10B5CC
:101520000B7873B94C887F2C0CD8D0F8DC308475DC
:1015300093F830201AB149885B68C9B298470123F3
:1015400000E00023184610BDF8B50D464988044652
:1015500079B103680D26587C0023984201D80020F9
:10156000F8BD626806FB032252798A4203D0013338
:10157000F3E74FF0FF330133DBB2E3754BB9D4F837
:10158000DC302046DB689847D4F8C8309BB901208E
:10159000E6E70D22534362680D3B134400221046D8
:1015A00019799142EBD9D3F809101601715801B19C
:1015B00008700132F4E7002304F1C806A364236530
:1015C000A365236604F1D80756F8043B13B12046FF
:1015D00069889847B742F7D1D9E719881268012975
:1015E00084BF01211980C37D2BB141680D2000FB10
:1015F000031313F8083C01201370704730B50D2415
:10160000C57D40686C430D3C04448D88207985423B
:101610000CD2012018808B88D4F809001B011B58BC
:1016200003B11B7801201268137030BD0020FCE765
:1016300019880120022984BF022119800023116822
:101640000B7012685370704710B514461A88022A3E
:1016500084BF02221A808988C9B2FFF7EBFD0038E7
:1016600018BF0120002223681870236801205A70D7
:1016700010BD08B589880122C9B2FFF7D7FD012046
:1016800008BD08B589880022C9B2FFF7CFFD012047
:1016900008BD0D2270B51C46C37D5A4343680D3A00
:1016A00013441D798A88954219D9D3F80950160137
:1016B00005EB02124B8812799A4210D9AA5952B1FD
:1016C0001370D0F8D83013B14A888988984700231E
:1016D0000120238070BD002BF3D01046FAE70020D4
:1016E000F8E72DE9F04F1F464B880646180A0228F6
:1016F000144689B010D0032800F0ED80012840F096
:101700002381336813601B783A88934228BF1346BD
:101710003B8009B0BDE8F08F4FF00D08DBB208FB4D
:1017200003F83269D6F80490226019F808503C8812
:1017300009EB0803A54228BF2546029219462A460E
:101740000298039300F09AFC029B641B5E1900232D
:1017500019F80880A4B20193039B1A79BDF80430EC
:101760009A4205D8029BA3F802803D800120D0E771
:10177000019B019A1B010593039BD3F8093003EBEE
:101780000213D3F808A0BAF1000F14D09AF8009011
:101790003046A14528BFA14651464A4600F06EFC9E
:1017A0009AF80030A4EB09044D4498444E44A4B286
:1017B000ADB21FFA88F800230493039B059AD3F86F
:1017C000093013441979BDF81020914202D8019BC9
:1017D0000133C0E71521049AD3F80CA001FB02F9EC
:1017E0001AF809B00AEB0903A34528BFA346194616
:1017F00030465A46009300F041FC1AF80930A4EB39
:101800000B049844009B5D44D3F80D105E44A4B2D1
:10181000ADB21FFA88F8B1B1D3F811A03046A24595
:10182000A8BFA2461FFA8AF94A4600F027FC009B8F
:10183000A4EB0904D3F811304D4498444E44A4B2AB
:10184000ADB21FFA88F84FF00009009B1A791FFA11
:1018500089F39A4202D8049B0133ADE7009BC9EBA0
:10186000091BD3F80930304613F80B2003EB0B0AA1
:10187000A24228BF224651460793069200F0FEFB83
:10188000079B069A13F80B30DAF80710A41A1544D0
:1018900098441644A4B2ADB21FFA88F8C1B1DAF880
:1018A0000B203046A242A8BF22461FFA82FB5A46AE
:1018B000CDF818B000F0E2FBDAF80B30069AA4EB92
:1018C0000B045D4498441644A4B2ADB21FFA88F8E4
:1018D00009F10109B9E713F0FF0335690DD10923B7
:1018E000AB700423EB702B703B88042B28BF0423C0
:1018F0003B8003236B70256038E7B068013B00280C
:101900003FF407AFF2689A421EDD40F2094289882F
:10191000914219D150F82360304600F0BDFB0130F0
:101920004000C0B228703B88984228BF1846002368
:1019300038803A885208013A9A42DADDF15C05EBC8
:10194000430251800133F4E70020E2E619880120C8
:10195000022984BF02211980002311680B701268CC
:10196000537070470246002310B500F1C80454F8C4
:10197000040B38B1884209D00133042BF7D14FF062
:10198000FF3010BD323342F82310FAE70020F8E7A9
:1019900010B44C78092C12D8DFE804F00D111111A5
:1019A000110F0B110905074CA44610BC6047064CEB
:1019B000FAE7064CF8E7064CF6E7064CF4E7002099
:1019C00010BC704749150008DB150008E316000835
:1019D000311600081F15000810B44C780A2C06D0E8
:1019E0000B2C06D03CB9054CA44610BC6047044CF7
:1019F000FAE7044CF8E7002010BC70474D190008C6
:101A0000FD1500089316000810B44C78012C04D082
:101A1000032C07D01CB9084C08E04C884CB10020BE
:101A200010BC70474C88002CF9D1044CA44610BC63
:101A30006047034CFAE700BF491600087316000818
:101A40008316000810B40C7814F0600F0FD104F066
:101A50001F04012C05D0022C06D044B910BCFFF79E
:101A600097BF10BCFFF7B8BF10BCFFF7CDBF002079
:101A700010BC704708B540F29730FFF719FB002300
:101A8000054A064913600B6041F80C3C4FF41C43B7
:101A90000348136008BD00BF405C0040505C00403C
:101AA000300100200132521001EB4202914200D17C
:101AB000704731F8023B40F8043BF7E7034670B546
:101AC00002F00104520801EB8205A94204D114B1CD
:101AD0000B7800F8123070BD31F8046B23F8026BFC
:101AE000F3E70000024B20F07F401860704700BF12
:101AF00014E000E0044A00F00400136823F004033B
:101B000003431360704700BF10E000E0024A13680F
:101B100043F002031360704710E000E0024A1368CC
:101B200043F001031360704710E000E00122430915
:101B30009B0003F1604300F01F0003F5614302FACC
:101B400000F0186070470000432893BF00F1604028
:101B5000044B00F00F0000F564408CBFC1540170CD
:101B6000704700BF14ED00E0034A136823F0070339
:101B700003431360704700BF00200240024B41F056
:101B800080011960704700BF4C5C00403E2A13D9A9
:101B9000013AC2F3441302F4787202F1200043F0D8
:101BA0002003084A9B0212689BB292B202EBC10169
:101BB000054A4900535070470132530822F0010290
:101BC00090B2EEE7505C00400C6000402DE9F3411C
:101BD00006464FF0C060434C01F07F07CDE900405E
:101BE000BC0004F1804404F5B844206802AD20F440
:101BF000E04020F07F00384380B22060206805EB91
:101C0000420232F8082C20F4EC4020F0700010431F
:101C100049B280B200292060DDF8208032484FEAC6
:101C2000C70C2ADB4FB30268318B92B294442F4A1F
:101C30004FEA4C0C42F80C1030461A463946FFF772
:101C4000A5FFB8F1000F46D1236823F4415323F0D8
:101C500030031B041B0C2360236823F4804323F010
:101C600070039BB283F4405343F4004343F080037A
:101C70002360338B184430832AE00568328BADB281
:101C800065446D0005F1804505F5C0452A60B8F151
:101C9000000F04D00C2505FB0765C5F86880256892
:101CA0001A4425F4E04525F030052D042D0C25605F
:101CB0002568002925F4E04525F04005ADB285F002
:101CC000200545F4004545F0800525603283AADAF9
:101CD00002B0BDE8F0810C2101FB0767C7F86C80FA
:101CE000B2E700BF00020004505C00400860004002
:101CF00048F2800170B50B4A0B4E0C4D0C4C13682A
:101D000033400B439BB2136013682B400B439BB2D1
:101D100042F8043BA242F2D10368DB7920335B0036
:101D2000038370BD045C0040BF8FFFFF8FBFFFFFC8
:101D3000205C004010B5002933D1002A14BF1024C4
:101D400020242B48036823F4E04323F0400363403E
:101D50001BB243F4004343F080039BB2036089004D
:101D600001F1804101F5B8413AB90B6823F44153C0
:101D700023F030031B041B0C0B60002A14BF4FF42C
:101D800080524FF440520B6823F4804323F07003D9
:101D900053401BB243F4004343F080039BB20B60FB
:101DA00024E00B06DBD5002A14BF1022202201F00C
:101DB0007F034FEA830303F1804303F5B8431968B7
:101DC00021F4E04121F0400182EA010212B242F422
:101DD000004242F0800292B21A6007D11A6822F4DF
:101DE000E04222F030021204120C1A6010BD00BF53
:101DF000005C00400B060ED501F07F01890001F167
:101E0000804101F5B841086800F03000102814BF87
:101E1000002001207047890001F1804101F5B8419F
:101E2000086800F44050B0F5805FF0E70B0612D46C
:101E30000B4B0C485A54890001F1804101F5B8411F
:101E40000B6803409BB23AB183F4005343F4004360
:101E500043F080030B60704783F44053F6E700BF04
:101E60002C0200208FBFFFFF0846F8B51D4600F08A
:101E70007F039C0004F1804404F5B84411462268B5
:101E800002F03002302A28D0154F2A463868DE008A
:101E900080B200EBC300400000F1804000F5C0407C
:101EA0000088400000F1804000F5C040FFF7FAFDD7
:101EB0003B689BB21E440B4B76009D51216821F478
:101EC000E04121F0400189B281F0300141F400414C
:101ED00041F0800121602846F8BD0025FBE700BFE6
:101EE000505C004004600040F8B58D0005F180456D
:101EF00005F5B8451C462B680E4603F44053B3F570
:101F0000405F10463BD01F4F1F4A3B68C9009BB241
:101F100003EBC6035B00D358C3F30903A34206DAFD
:101F20003B689BB20B445B00D458C4F309043B6884
:101F300022469BB21944154B4900595A490001F1F8
:101F4000804101F5C041FFF7B9FD2B6823F0F00394
:101F50001B051B0D43F080032B600D4B9B5D63B98C
:101F6000296821F4804121F0700189B281F4405147
:101F700041F4004141F0800129602046F8BD002471
:101F8000FBE700BF505C00400C6000400860004070
:101F90002C020020374A2DE9F0411368044613F45F
:101FA000806F16469FB208D0BDE8F0414FF6FF3370
:101FB000136040230383FFF712B91D041FD503F0FC
:101FC0000F084FEA880505F1804513F0100305F569
:101FD000B84536D02B6819053CD50823414600F199
:101FE0003002FFF781FF022308EB480213441A3343
:101FF00054F82330002B2FD04146204698473A050D
:1020000005D54FF2FF733360236A03B19847FB0491
:1020100005D54EF6FF733360636A03B1984717F432
:10202000007F154D05D04FF6FF52A36A3260E3B131
:102030009847A36ACBB12B6843F400732B60BDE8CB
:10204000F0812A6822F0F0021205120D42F40042DB
:102050002A60C9E70123C7E72B6823F0F0031B05BB
:102060001B0D43F080032B60C9E72B6823F400733A
:10207000E4E700BF445C0040405C00400A449142F9
:1020800000F1FF3300D1704710B511F8014B9142B8
:1020900003F8014FF9D110BD034613F8012B002AB4
:1020A000FBD1181A013870475475746F7269616CEE
:1020B00000000000446973706C61790044697370BA
:1020C0006C617920496E7465726661636500000019
:1020D000A8200008B42000081C010020BC20000833
:1020E00007050102400000000000000000000000A1
:1020F0000904000001FF000004E0200008000000C7
:1021000000000000000000000000000001000000CE
:1021100000000000F020000809020000010100801A
:10212000FA0821000800000012010002FF00004030
:10213000FECAAFCE6100010203010000303132332C
:1021400034353637383941424344454600000000B3
:10215000751A00087D1B0008CD1B0008F11C000843
:10216000351D00082D1E0008F51D0008691E000819
:10217000E91E0008951F0008000000000000000094
:04218000000000005B
:10218400FFFFFFFFF000F00000127A0000127A0057
:0421940000127A00BB
:0400000508000C3DA6
:00000001FF
